:100003002020202009202020202020202020202004
:10001300202044656D6F2042544520436F6D70610D
:1000230072650045786563757465204C6F67696315
:1000330020274F52272030786630303000576974BC
:10004300686F7574204254450057697468204254A0
:100053004520577269746500524F500057697468A0
:1000630020425445204D6F7665005370656E7420B1
:1000730035312E31326D73005370656E7420323515
:100083002E35366D7300535370656E7420362E34DF
:100093006D730020202020202020202020202044B9
:1000A300656D6F2042544520436F6C6F7220457815
:1000B30070616E73696F6E00436F6C6F7220457869
:1000C30070616E73696F6E00436F6C6F7220576956
:1000D3007468206368726F6D61206B6579002020FE
:1000E30020202020202020202020202044656D6F08
:1000F30020425445205061747465726E2046696CC9
:100103006C005061747465726E2046696C6C0050AB
:1001130061747465726E2046696C6C2057697468EB
:10012300004368726F6D61204B65790020202020A9
:1001330020202020202020202020202020202020BC
:1001430044656D6F2050495000504950310050496B
:100153005032002020202020202020202020417009
:10016300706C69636174696F6E2044656D6F2057AD
:10017300617665666F726D00425445206D656D6FE3
:10018300727920636F7079202B2047656F6D6574DA
:1001930072696320647261772064656D6F20776193
:1001A3007665666F726D002020202020202020209D
:1001B30020202020202044656D6F205363726F6CD4
:1001C3006C696E6720546578740055736564204DBF
:1001D3006F766520425445207769746820436872BE
:1001E3006F6D61204B6579200044656D6F2053630B
:1001F300726F6C6C696E67205465787400202020E0
:100203002020202020202020202044656D6F204DB9
:10021300756C7469204672616D652042756666650A
:100223007200202020202020202020202020204475
:10023300656D6F204D756C6974204672616D652024
:100243004275666665720020202020202020202031
:100253002020202044656D6F20736C696465204203
:100263007566666572002020202020202020202033
:10027300202020202044656D6F20416C7068612030
:10028300426C656E64696E67004661646520696EE1
:1002930020616E642066616465206F75740045613A
:1002A3007374526973696E6720546563686E6F6C0B
:1002B3006F6779007777772E627579646973706CED
:1002C30061792E6F636D0031302E3120696E636862
:1002D30020544654204D6F64756C652020313032B4
:1002E300342A36303020446F747300456D62656480
:1002F30064656420387831362041534349492043AB
:10030300686172616374657200456D6265646465FA
:1003130064203132783234204153434949204368C1
:100323006172616374657200456D626564646564DE
:1003330020313678333220415343494920436861A1
:1003430072616374657200537570706F7274696E55
:10035300672047656E69746F7020496E632E205560
:100363004E49434F44452F424947352F4742206565
:1003730074632E2053657269616C204368617261F6
:100383006374657220524F4D20776974682031364B
:100393007831362F32347832342F33325833322097
:1003A300646F747320466F6E742E005468652073F7
:1003B3007570706F7274696E672070726F647563A5
:1003C30074206E756D626572732061726520475487
:1003D30032314C313654572F475432314831365429
:1003E30031572C20475432334C31365532572C2059
:1003F300475432334C32345433592F4754323348F1
:1004030032345433592C20475432334C32344D3127
:100413005A2C20616E6420475432334C33325334A8
:10042300572F475432334833325334572C204754D1
:1004330032334C32344636592C20475432334C3203
:10044300345331572E0044656D6F20475432334C7B
:10045300323454335920424947353A00B6B0B37168
:10046300A4A4A4E5C163C5E931367831363A5241D3
:10047300383837362054465420B9CFA7CEB1B1A867
:10048300EEBEB900B6B0B371A4A4A4E5C163C5E9D7
:1004930032347832343A524138383736205446545D
:1004A30020B9CFA7CEB1B1A8EEBEB90044656D6F38
:1004B30020475432334C3234543359204742323379
:1004C30031323A00BCAFCDA8D6D0CEC4BCF2CCE515
:1004D30031367831363A524138383736205446541B
:1004E30020CDBCD0CEBFD8D6C6C6F70044656D6F4D
:1004F3002074657874207472616E73706172656EB6
:100503007420777269746500AD49B4BAB37AA9FAF5
:10051300A672BC67A44A0044656D6F207465787445
:1005230020637572736F723A00303132333435366B
:100533003738390044656D6F20677261706869638D
:1005430020637572736F723A0020202020202020D0
:100553002020202020202020202020202044656DE2
:100563006F20444D4100202044656D6F2064697203
:100573006563742061636365737320736572696176
:100583006C20464C41534820746F2073686F77206A
:1005930070696374757265005450204E65656420FC
:1005A300726561646A7573742100506C656173656B
:1005B3002075736520746865207374796C75732076
:1005C300636C69636B207468652063726F73732057
:1005D3006F6E207468652073637265656E2E0054B8
:1005E30068652063726F73732077696C6C20616C2C
:1005F30077617973206D6F766520756E74696C20F1
:100603007468652073637265656E2061646A7573CF
:10061300746D656E7420697320636F6D706C65749F
:1006230065642E00546F7563682053637265656E4D
:100633002041646A7573742073756363656564210F
:10064300004558495400434C454152004472617778
:10065300696E67206C696E6500583A00593A00006C
:100663000000000000000000000000000000000087
:100673000000000000000000000000000000000077
:100683000000000000000000000000000000000067
:1006930000018001800180018001800180018001CF
:1006A3008001800180018001800180000000000141
:1006B3008001800000000000000000000000000036
:1006C30000000000CC00CC00CC00CC00CC00CC005F
:1006D3000000000000000000000000000000000017
:1006E3000000000000000000000000000000000007
:1006F30000000000000000000000000C600C600C13
:1007030060063006301FFE1FFE0630073803181F31
:10071300FE1FFE03180318018C018C018C000000DE
:1007230000008003E00FF80E9C1C8C188C008C00DA
:100733009801F807E00E801C80188C188C189C0C0C
:10074300B80FF003E000800080000000000000000C
:100753000000000000180E0C1B0C110611061103FB
:10076300110311019B018E38C06CC0446044604486
:1007730030443044186C18380C00000000000000AE
:100783000001E003F0073806180618033001F000F3
:10079300F000F8319C330E1E061C061C063F067340
:1007A300FC21F00000000000000000000000000039
:1007B300000000000C000C000C000C000C000C00EE
:1007C3000000000000000000000000000000000026
:1007D3000000000000000000000000000000000016
:1007E3000002000300018000C000C0006000600040
:1007F3003000300030003000300030003000300076
:1008030060006000C000C00180030002000000001F
:10081300000020006000C001800180030003000687
:100823000006000600060006000600060006000398
:100833000003000180018000C00060002000000070
:10084300000000000000000000000000C000C0061F
:10085300D807F801E003300738000000000000006B
:100863000000000000000000000000000000000085
:100873000000000000000000000000018001800172
:1008830080018001803FFC3FFC01800180018001E9
:100893008001800000000000000000000000000054
:1008A3000000000000000000000000000000000045
:1008B3000000000000000000000000000000000035
:1008C30000018001800100010000800000000000A1
:1008D3000000000000000000000000000000000015
:1008E3000000000000000007E007E0000000000037
:1008F30000000000000000000000000000000000F5
:1009030000000000000000000000000000000000E4
:1009130000000000000000000000000000000000D4
:100923000000C000C0000000000000000000000044
:10093300000C000C00060006000600030003000381
:1009430000038001800180018000C000C000C0005E
:1009530060006000000000000000000000000000D4
:100963000003E007F00E380C18180C180C180C18BC
:100973000C180C180C180C180C180C0C180E380743
:10098300F003E00000000000000000000000000091
:10099300000100018001C001F0019801880180017C
:1009A300800180018001800180018001800180013C
:1009B3008001800000000000000000000000000033
:1009C3000003E00FF80C18180C180C180018000C92
:1009D3000006000300018000C00060003000181F03
:1009E300FC1FFC00000000000000000000000000ED
:1009F3000001E007F80E180C0C0C0C0C00060003A9
:100A0300C007C00C0018001800180C180C0C1807AD
:100A1300F803E000000000000000000000000000F8
:100A2300000C000E000F000F000D800CC00C600CBA
:100A3300600C300C180C0C3FFC3FFC0C000C000C41
:100A4300000C000000000000000000000000000097
:100A5300000FF80FF800180018000C03EC07FC0E49
:100A63001C1C00180018001800180C0C1C0E18078A
:100A7300F803E00000000000000000000000000098
:100A83000007C00FF01C3818180018000C03CC0F17
:100A9300EC0E3C1C1C180C180C180C1C180E3807F8
:100AA300F003E00000000000000000000000000070
:100AB300001FFC1FFC0C000600060003000380015E
:100AC3008001C000C000E0006000600070003000E2
:100AD30030003000000000000000000000000000B3
:100AE3000003E007F00E380C180C180C1806380732
:100AF300F007F00C18180C180C180C180C0C380F05
:100B0300F803E00000000000000000000000000007
:100B13000003E007F00E380C1C180C180C180C1C02
:100B23001C1E381BF819E018000C000C000E1C07E3
:100B3300F801F000000000000000000000000000C9
:100B430000000000000000000000000180018000A0
:100B53000000000000000000000000000000000191
:100B63008001800000000000000000000000000081
:100B73000000000000000000000000018001800070
:100B83000000000000000000000000000000000161
:100B930080018001000100008000000000000000CF
:100BA3000000000000000000000000000000001032
:100BB300001C000F8003E000F8001800F803E00FAA
:100BC300801C001000000000000000000000000076
:100BD3000000000000000000000000000000001FF3
:100BE300F80000000000001FF800000000000000F3
:100BF30000000000000000000000000000000000F2
:100C030000000000000000000000000000000000E1
:100C130008003801F007C01F0018001F0007C001BB
:100C2300F000380008000000000000000000000091
:100C33000003E00FF80C18180C180C18000C000631
:100C4300000300018000C000C000C00000000000DD
:100C5300C000C00000000000000000000000000011
:100C630000000007E01818200429C24A2244114456
:100C73000944094409220913110CE2400220041813
:100C83001807E00000000000000000000000000062
:100C9300000380038006C006C006C00C600C601809
:100CA30030183018303FF83FF8701C600C600CC0EF
:100CB30006C0060000000000000000000000000065
:100CC3000003FC0FFC0C0C180C180C180C0C0C0774
:100CD300FC0FFC180C300C300C300C300C180C1FB3
:100CE300FC07FC0000000000000000000000000002
:100CF3000007C01FF03838301C700C600600060077
:100D03000600060006000600066006700C301C1F75
:100D1300F007E000000000000000000000000000F9
:100D23000003FE0FFE0E06180618063006300630C6
:100D3300063006300630063006180618060E060F73
:100D4300FE03FE00000000000000000000000000A1
:100D5300003FFC3FFC000C000C000C000C000C1FBF
:100D6300FC1FFC000C000C000C000C000C000C3FE2
:100D7300FC3FFC0000000000000000000000000039
:100D8300003FF83FF8001800180018001800181F5B
:100D9300F81FF800180018001800180018001800B1
:100DA3001800180000000000000000000000000010
:100DB300000FE03FF8783C600EE006C00700030038
:100DC30003FE03FE03C003C007C006C00EF03C3F92
:100DD300F80FE00000000000000000000000000029
:100DE30000300C300C300C300C300C300C300C3F1D
:100DF300FC3FFC300C300C300C300C300C300C3021
:100E03000C300C0000000000000000000000000097
:100E13000001800180018001800180018001800147
:100E230080018001800180018001800180018001B7
:100E330080018000000000000000000000000000AE
:100E4300000600060006000600060006000600066F
:100E530000060006000600060006180618073803F9
:100E6300F001E000000000000000000000000000AE
:100E730000300618060C0606060306018600C600A7
:100E830066007600DE018E030606060C06180630A1
:100E930006600600000000000000000000000000E3
:100EA3000000180018001800180018001800180097
:100EB3001800180018001800180018001800181F50
:100EC300F81FF80000000000000000000000000010
:100ED30000E00EF01EF01EF01ED836D836D836D8F5
:100EE30036CC66CC66CC66C6C6C6C6C6C6C6C6C340
:100EF30086C3860000000000000000000000000020
:100F030000300C301C303C303C306C306C30CC301A
:100F1300CC318C330C330C360C360C3C0C3C0C387B
:100F23000C300C0000000000000000000000000076
:100F33000007E01FF8381C700E6006C003C003C032
:100F430003C003C003C003C0036006700E381C1F38
:100F5300F807E000000000000000000000000000AF
:100F6300000FFC1FFC380C300C300C300C300C180C
:100F73000C1FFC07FC000C000C000C000C000C0008
:100F83000C000C0000000000000000000000000046
:100F93000007E01FF8381C700E6006E003C003C0B2
:100FA30003C003C003C003E00763063F0E3C1C3FBE
:100FB300F8F7E0C00000000000000000000000009F
:100FC300000FFE1FFE380630063006300638061FB7
:100FD300FE07FE030606060C061806180630063042
:100FE3000660060000000000000000000000000092
:100FF3000003E00FF80C1C180C180C000C001C0369
:10100300F80FE01E00380030063006300E1C1C0FAF
:10101300F807E000000000000000000000000000EE
:10102300007FFE7FFE01800180018001800180013D
:1010330080018001800180018001800180018001A5
:10104300800180000000000000000000000000009C
:1010530000300C300C300C300C300C300C300C30B9
:101063000C300C300C300C300C300C300C18181FBA
:10107300F807E0000000000000000000000000008E
:10108300006003300630063006180C180C180C0CE0
:10109300180C180E38063006300770036003600121
:1010A300C001C000000000000000000000000000BC
:1010B30000600361C361C361C33366336633663360
:1010C30066336633661B6C1B6C1B6C1A2C1E3C0E42
:1010D300380E38000000000000000000000000008F
:1010E30000E00F700C301818300C700E6007C0034E
:1010F30080038003C006E00C701C301818300C60AD
:101103000EE00700000000000000000000000000E7
:1011130000C0036006300C381C18380C300660071A
:10112300E003C00180018001800180018001800112
:1011330080018000000000000000000000000000AB
:10114300007FFC7FFC6000300018000C00060003E9
:1011530000018000C0006000300018000C00067F12
:10116300FE7FFE0000000000000000000000000001
:101173000003E003E00060006000600060006000C6
:10118300600060006000600060006000600060005C
:1011930060006000600060006003E003E0000000A6
:1011A300000030003000600060006000C000C0003C
:1011B300C001C00180018001800300030003000619
:1011C3000006000000000000000000000000000016
:1011D3000003E003E0030003000300030003000334
:1011E30000030003000300030003000300030003E4
:1011F30000030003000300030003E003E00000001A
:1012030000000001C001C0036003600360063006F4
:10121300300C180C18000000000000000000000053
:1012230000000000000000000000000000000000BB
:1012330000000000000000000000000000000000AB
:10124300000000000000000000000000000000009B
:1012530000FFFFFFFF00000000000000000000008F
:1012630000000C000C000C000C000C000C00000033
:10127300000000000000000000000000000000006B
:10128300000000000000000000000000000000005B
:10129300000000000000000000000003F007F80C4D
:1012A3001C0C0C0F000FF00CF80C0C0C0C0F1C0F8B
:1012B300F818F0000000000000000000000000002B
:1012C300000018001800180018001803D80FF80CB5
:1012D300381818181818181818181818180C380F60
:1012E300F803D80000000000000000000000000028
:1012F300000000000000000000000003C007F00E23
:10130300300C1800180018001800180C180E3007BD
:10131300F003C00000000000000000000000000017
:1013230000180018001800180018001BC01FF01C3C
:10133300301818181818181818181818181C301FEF
:10134300F01BC000000000000000000000000000CF
:10135300000000000000000000000003C00FF00CBC
:101363003018181FF81FF80018001818381C300F11
:10137300F007C000000000000000000000000000B3
:10138300000F800FC000C000C000C007F007F000CE
:10139300C000C000C000C000C000C000C000C0004A
:1013A300C000C000000000000000000000000000BA
:1013B30000000000000000000000000DE00FF80E28
:1013C300180C0C0C0C0C0C0C0C0C0C0C0C0E180F3D
:1013D300F80DE00C000C0C061C07F801F0000000EF
:1013E300000018001800180018001807D80FF81C80
:1013F300381818181818181818181818181818184A
:101403001818180000000000000000000000000091
:101413000000C000C000000000000000C000C000C9
:10142300C000C000C000C000C000C000C000C000B9
:10143300C000C00000000000000000000000000029
:101443000000C000C000000000000000C000C00099
:10145300C000C000C000C000C000C000C000C00089
:10146300C000C000C000C000C000F8007800000049
:1014730000000C000C000C000C000C0C0C060C0300
:101483000C018C00CC006C00FC019C038C030C064B
:101493000C0C0C0000000000000000000000000025
:1014A3000000C000C000C000C000C000C000C000F9
:1014B300C000C000C000C000C000C000C000C00029
:1014C300C000C00000000000000000000000000099
:1014D30000000000000000000000003C7C7EFFE3F1
:1014E300C7C183C183C183C183C183C183C183C195
:1014F30083C1830000000000000000000000000022
:10150300000000000000000000000007980FF81C16
:101513003818181818181818181818181818181828
:101523001818180000000000000000000000000070
:10153300000000000000000000000003C00FF00CDA
:10154300301818181818181818181818180C300FFD
:10155300F003C000000000000000000000000000D5
:10156300000000000000000000000003D80FF80C8A
:10157300381818181818181818181818180C380FBD
:10158300F803D8001800180018001800180000000D
:1015930000000000000000000000001BC01FF01C42
:1015A300301818181818181818181818181C301F7D
:1015B300F01BC018001800180018001800000000E5
:1015C300000000000000000000000007B003F0006E
:1015D3007000300030003000300030003000300048
:1015E3003000300000000000000000000000000098
:1015F300000000000000000000000003E003F00E04
:10160300380C18003803F007C00C000C180E38070C
:10161300F003E000000000000000000000000000F4
:10162300000000008000C000C000C007F007F00009
:10163300C000C000C000C000C000C000C000C007A0
:10164300C007800000000000000000000000000050
:10165300000000000000000000000018181818180F
:10166300181818181818181818181818181C381FCC
:10167300F019E0000000000000000000000000007E
:101683000000000000000000000000180C0C180C03
:10169300180C18063006300630036003600360013F
:1016A300C001C000000000000000000000000000B6
:1016B300000000000000000000000041C141C161C2
:1016C300C36363636363633636363636361C1C1C6A
:1016D3001C1C1C00000000000000000000000000B3
:1016E3000000000000000000000000381C1C380C43
:1016F300300660036003600360036006600C301C07
:1017030038381C000000000000000000000000004A
:10171300000000000000000000000030181830181E
:101723003018700C600C600CE006C006C003800328
:101733008003800180018001C000F0007000000080
:1017430000000000000000000000001FFC1FFC0C54
:101753000006000300018000C00060003000181F75
:10176300FC1FFC000000000000000000000000005F
:10177300000300018000C000C000C000C000C00022
:10178300C00060006000300060004000C000C00086
:10179300C000C000C000C0018003000000000000C2
:1017A30000018001800180018001800180018001AE
:1017B300800180018001800180018001800180011E
:1017C3008001800180018001800180018000000090
:1017D30000006000C001C001800180018001800120
:1017E3008003000300060003000100018001800163
:1017F3008001800180018000C000600000000000C3
:1018030000000000000000000000000000000010C5
:10181300F01FF80F080000000000000000000000A7
:10182300000000000000000000000000000000F8BD
:1018330000F800F800F800F800F800F80092488972
:10184300E6F800F80083495B29F800F800F800F88F
:1018530000F800F800F800F800F80089E6FDD6FE6D
:10186300379247F80072C7EFDC636BF800F800F8B3
:1018730000F800F800F800F8008948FD93FAA8D9A9
:1018830083FDB39168AA2BF71F72F0F800F800F8F4
:1018930000F800F800F800AA2BFDFAE1C4D121D921
:1018A30083E1C4FE3B99CAD5FC8393F800F800F8A2
:1018B30000F800F800C1E7FD56EA29AA8868807994
:1018C30002A247C925FDF8C207B9C7F800F800F816
:1018D30000F800A104FDD6E208D9C75800FD33F48F
:1018E300B170A0D9C7C966FE1798E3F800F800F8ED
:1018F300008203FD31E205C2077800B637F7FFF730
:10190300FFB6378000B1A5D9C4FE156960F800920F
:1019130064FDB1EA66D9A47800FCD1EFDEF7FFF7E6
:10192300FFE7BDFCF28880D9C4D9C4FEB58A234839
:10193300E4510540664066CD58FF5FFFFEFF9CFF04
:10194300FEFF7CFF7FDDDA38254887512548E4A375
:10195300AFE5B7EDBBFE5EFF3F6A4D62C962CA6287
:10196300EA62EA728DFEFFFE3DEDBBE597ABF073D5
:10197300CCFFFDEFDEE79DFFFF94D4FFFFEF9FB5A4
:1019830097FFFF94D4FFFFF7FFF7FEFFFD6BAC6BF0
:101993008BFFFDF7FEFFFFFFFF4A6AB5B8C65AC6C5
:1019A3003AEF9F5B0DF7BFFFFFF7DEFFFD73CC6BD5
:1019B300E7FFF9FFF7FF95FFFBAD50DFFFDFFFA662
:1019C3009BCFBF9CAEFFFBFFF6FFF7FFF96BE7630F
:1019D300A6A5AECDEECDEECE346307330D32CC4BA0
:1019E3008F434E6307CE54C5ADBD8DADEF6BE7732B
:1019F30028D614FF5CEEB9EED9F71AFFDAEF58E6F2
:101A0300F7EF58F73BEF1AEED9FF7CCDF373085A83
:101A13006549C3310349C649C63964398142034123
:101A2300E239A249C641A549C6416441816AC7005A
:101A330000000000000000000000000000000000A3
:101A43000000000000000000000000000000000093
:101A53000000000000000000000000000000000083
:101A63000000000000000000000000000000000073
:101A73000000000000000000000000000000000063
:101A83000000000000000000000000000000000053
:101A93000000000000000000000000000000000043
:101AA3000000000000000000000000000000000033
:101AB3000C180000000000000000000000000000FF
:101AC30000000009FF7FC0000000000000000000CC
:101AD300000000000000001FFF7FFC00000000006A
:101AE30000000000000000000000007FFE3FFF0038
:101AF300000000000000000000000000000003FFE1
:101B0300FC1FFFE0000000000000000000000000D8
:101B130000000FFFF80FFFF80000000000000000B6
:101B23000000000000003FFF87F1FFFC0000000001
:101B33000000000000000000000067C807F009F77C
:101B43000000000000000000000000000000000092
:101B530007F000000000000000000000000000008B
:101B63000000000007F0000000000000000000007B
:101B73000000000000F000000FF00000070000006C
:101B830000000000000000000F8000000FF00000C4
:101B930003F8000000000000000000003F00000008
:101BA3000FF80000007E00000000000000000001AC
:101BB300FE0000000FF80000003FC000000000001E
:101BC30000000007FC0000000FF80000001FF000F9
:101BD300000000000000003FF80000000FF80000C4
:101BE300000FF800000000000000007FE00000008C
:101BF3000FF000000007FF0000000000000000FFDE
:101C0300C000000007F000000001FF80000000009A
:101C1300000001FF8000000007F000000000FFC08B
:101C230000000000000003FF0000000007F00000B8
:101C330000007FC000000000000003FE0000000061
:101C430007F0000000003FC000000000000003FC9C
:101C53000000000007F0000000001FE0000000008B
:101C6300000004F80000000003E0000000000FC0C3
:101C730000000000000028300000000007F0000012
:101C830000000408000000000000781800000000B5
:101C930003E000000000000F000000000000F83C1B
:101CA3000000000001C0000000001E0F80000000C3
:101CB3000001FC7E0000000001C0000000003F1F87
:101CC300C00000000003FCFF0000000001C0000092
:101CD30000007F9FE00000000003FFFF8000000082
:101CE30001C000000000FFFFE00000000003FDFF53
:101CF300C000000001C000000001FFDFE0000000A1
:101D03000007F8FFE0000000008000000003FF8FE1
:101D1300F0000000000FF07FF000000000800000E2
:101D23000007FF07F0000000000FE03FF80000008D
:101D330000800000000FFE03F8000000001FC01F1A
:101D4300F800000000800000000FFC01FC00000010
:101D5300000F800FF800000000000000000FF800E3
:101D6300F8000000001F0007FC0000000000000056
:101D7300001FF0007C000000001E0003FE000000B6
:101D830000800000003FE0007C000000003C0001F8
:101D9300FF00000000800000007FC0003E00000044
:101DA300003C0000FF00000000800000007F800076
:101DB3001E000000007800003F800000008000004B
:101DC30000FE00000F000000003000001FC00000F4
:101DD30001C0000001FC00000600000000600000DC
:101DE3000FC0000001C0000001F800000300000064
:101DF3000040000001C0000003E0000001C000003B
:101E03000100000000C0000000E0000003E000004B
:101E1300038000000100000000C00000003000004B
:101E230003E0000006000000010000000080000045
:101E33000010000003E00000040000000080000028
:101E4300000000000000000007F000000000000098
:101E53000000000000000000000000000FF0000080
:101E6300000000000000000000000000000300006C
:101E73000FF80000600000000000000000000000F8
:101E8300000180001FFC0000C000000000000000F3
:101E9300020000000000F8001FFC000F800000009B
:101EA30000200000060000000000FC001FFC001FD3
:101EB3008000000000300000040000000000FFC0AC
:101EC3001FFC01FF80000000001000000E00000056
:101ED3000000FFE01FFC03FF80000000003800004B
:101EE3001E00000000007FFA1FFC2FFF000000000F
:101EF300003800001E00000000003FFF3FFE7FFE91
:101F030000000000003C00003C00000000003FFF18
:101F1300FFFFFFFE00000000003E00003C00000049
:101F230000001FFFFFFFFFFC00000000001E000079
:101F33003C00000000001FFFFFFFFFFC000000004B
:101F4300001E00007C00000000001FFFFFFFFFFCDD
:101F530000000000001E00007C00000000000FFFD6
:101F6300FFFFFFF800000000001F0000FC0000005E
:101F730000000FFFFFFFFFF800000000001F8000BC
:101F8300FC000000000007FFFFFFFFF0000000005F
:101F9300001F8000F8000000000007FFFFFFFFF0B4
:101FA30000000000000F8000F8000000000003FFA5
:101FB300FFFFFFE000000000000F8001F8000000B9
:101FC300000003FFFFFFFFC000000000001FC0016F
:101FD300F8000000000003FFFFFFFFC00000000047
:101FE300000FC000F8000000000003FFFFFFFFE048
:101FF30000000000000F8001F800000000003FFF18
:10200300FFFFFFFE00000000000F8001F81C00002E
:102013000003FFFFFFFFFFFFC0000000000FC00130
:10202300FFFFF8000007FFFFFFFFFFFFF0000003C3
:10203300FFCFC001E7FFFF80005FFFFFFFFFFFFF50
:10204300FD0000BFFFF3C001C7FFFFD001FFFFFF8B
:10205300FFFFFFFFFFC005FFFFF1C00007FFFFFE0B
:102063000FFFFFFFFFFFFFFFFFF83FFFFFF0000041
:1020730087FFFFFC07FFFFFFFFFFFFFFFFFC7FFF63
:10208300FFF08001C7FFFF00007FFFFFFFFFFFFF9F
:10209300FFC000FFFFF1C001E7FFFE00003FFFFFAD
:1020A300FFFFFFFFFE00003FFFF3C000F93E6000AB
:1020B3000007FFFFFFFFFFFFF0000013FFCF8001CA
:1020C300F80000000000FFFFFFFFFFFF800000009B
:1020D300000F8001F800000000003FFFFFFFFFFE3C
:1020E30000000000000FC000F8000000000003FF24
:1020F300FFFFFFE000000000000F8000F800000079
:10210300000001FFFFFFFFC000000000000F80017F
:10211300F8000000000003FFFFFFFFE000000000E5
:10212300000FC001FC000000000007FFFFFFFFF0ED
:1021330000000000001FC000FC000000000007FFBB
:10214300FFFFFFF000000000001F8000FC00000004
:10215300000007FFFFFFFFF000000000001F8000EA
:102163007C00000000000FFFFFFFFFF000000000F5
:10217300001F00007C00000000000FFFFFFFFFF8BE
:1021830000000000001F00007C00000000001FFF93
:10219300FFFFFFFC00000000001F00003C000000E8
:1021A30000001FFFFFFFFFFC00000000001E0000F7
:1021B3003C00000000003FFFFFFFFFFE00000000A7
:1021C300001E00001C00000000003FFFFFFFFFFC9B
:1021D30000000000001C00001E00000000003FFE85
:1021E3003FFE3FFE00000000003C00001C0000001A
:1021F30000007FF83FFC0FFF00000000001C000000
:102203000C0000000000FFE01FFC03FF00000000C3
:10221300001800000C0000000000FF001FFC01FF7D
:102223008000000000180000040000000000FE0011
:102233001FFC003F8000000000300000020000008F
:102243000000F8001FFC000F8000000000200000C9
:10225300000000000001C0000FF80001C0000000F2
:102263000000000000000000000300000FF8000061
:10227300400000000000000000000000000000001B
:102283000FF8000000000000000000000000000044
:102293000000000007F00000000000000000000044
:1022A300008000000010000007E0000008000000AC
:1022B30000800000008000000030000003E0000008
:1022C30006000000000000000040000001E00000E4
:1022D30003E0000003C000000100000000600000F4
:1022E30003C0000003C0000003E00000030000007F
:1022F300007000000FC0000003C0000001F80000E0
:1023030007000000007800001F80000001C00000EB
:1023130000FC00000F000000003C0000FF00000074
:102323000180000000FE00001E000000007C000190
:10233300FF0000000080000000FF00001E000000FE
:10234300003C0003FF00000000800000007FE0006D
:102353001E000000003E0007FE0000000000000019
:10236300003FF0003C000000001F000FFC000000D5
:1023730000000000001FF8007C000000000F801F19
:10238300F800000000000000001FFC00F80000003F
:10239300000FC03FF800000000000000000FFE0126
:1023A300F8000000000FE07FF00000000080000054
:1023B3000007FF03F8000000000FF0FFE00000003B
:1023C300008000000003FF87F80000000007F9FF0A
:1023D300C0000000008000000001FFCFF0000000FB
:1023E3000007FFFF80000000008000000000FF9F47
:1023F300F00000000003FFFF000000000180000068
:1024030000007F9FE00000000001FCFE00000000D0
:1024130001C0000000003F1FC00000000000FC7C62
:102423000000000003E0000000001E1F8000000009
:10243300000078380000000007F0000000000C0FD7
:1024430000000000000038100000000003E000005E
:102453000000040E000000000000087000000000EF
:1024630003E000000000060800000000000007F879
:102473000000000007F0000000000FE00000000073
:10248300000003FC0000000007E0000000001FE064
:1024930000000000000003FE0000000007F0000041
:1024A30000003FE000000000000001FF000000000A
:1024B30007F0000000007FC000000000000000FFE4
:1024C3008000000007F000000000FF800000000013
:1024D3000000007FC00000000FF000000001FF00BB
:1024E300000000000000003FE00000000FF00000CB
:1024F3000003FE00000000000000001FFC000000BD
:102503000FF00000001FFC000000000000000007A7
:10251300FE0000000FF00000003FF000000000008C
:1025230000000000FF0000000FF00000007F8000AB
:1025330000000000000000003F8000000FF00000DA
:1025430000FE000000000000000000000FC00000BB
:102553000FF0000001F80000000000000000000080
:1025630000F0000007F000000780000000000000FA
:10257300000000000000000007F000000000000061
:10258300000000000000000000008C0007F00008BD
:1025930080000000000000000000000000007FF841
:1025A30007F00FFF00000000000000000000000023
:1025B30000001FFF9414FFFC000000000000000057
:1025C3000000000000000FFFF80FFFF800000000FC
:1025D3000000000000000000000001FFFC1FFFC01E
:1025E300000000000000000000000000000000FFE9
:1025F300FE3FFF800000000000000000000000001C
:102603000000000FFF7FF800000000000000000042
:102613000000000000000003FF7FE0000000000056
:102623000000000000000000000000001224000071
:102633000000000000000000000000000000000097
:102643000000000000000000000000000000000087
:102653000000000000000000000000000000000077
:102663000000000000000000000000000000000067
:102673000000000000000000000000000000000057
:102683000000000000000000000000000000000047
:102693000000000000000000000000000000000037
:1026A3000000000000000000000000000000000027
:1026B3000000000000000000000000000000000017
:1026C3000000000000000000000000000000000007
:1026D30000000000000000000000000000000000F7
:1026E30000000000000000000000000000000000E7
:1026F30000000000000000000000000000000000D7
:1027030000000000000000000000000000000000C6
:1027130000000000000000000000000000000000B6
:1027230000000000000000000000000000000000A6
:102733000000000000000000000000000000000096
:1027430000000000003FFE00000000000000000049
:10275300000000000000000003FFFF000000000075
:102763000000000000000000000000003FFFFFE049
:102773000000000000000000000000000000013025
:1027830077FFFF8FC0000000000000000000000082
:1027930000017FE0007FFF8FF000000000000000D9
:1027A30000000000001FFF400000FE0FFC000000BF
:1027B3000000000000000000007FFF0000000E0F7B
:1027C300FC000000000000000000000003FFFC000C
:1027D30000000007FF800000000000000000000070
:1027E30003FFE000000003C7FF80000000000000BB
:1027F3000000000007FF0000000007F9FFE00000F1
:1028030000000000000000003FFC0000000007F88B
:102813001FF000000000000000000000F0E00000D6
:10282300000007F803F800000000000000000001AA
:10283300F040000000000FF001FC00000000000069
:1028430000000007E0C0000000000FF0003F0000A0
:10285300000000000000000FE3E0000000000FF0A4
:1028630000030000000000000000001FF7E000006C
:1028730000000FE000018000000000000000007F66
:10288300DFF0000000001FE0000000000000000077
:102893000000007F8FF8000000001FE00000000030
:1028A300000000000000007F0FFC000000001FE09C
:1028B3000000000000000000000000FC07FC000016
:1028C30000001FC00000060000000000000003F825
:1028D30007FE000000003FC00000030000000000EE
:1028E300000003F807FE000000001FC0000001C045
:1028F30000000000000003E003FE000000001FC012
:10290300000001E00000000000000F8001FF000054
:1029130000003F80000001F80000000000000F806D
:1029230001FF800000003F00000000FC00000000E9
:1029330000001C0000FF800000003F00000000FEBC
:102943000000000000001000007F800000001E0057
:102953000000003F8000000000003000003F8000C6
:1029630000003E000000001F800000000000000087
:10297300003FC00000003C000000001FC00000003A
:1029830000000000001F800000003C000000000F5A
:10299300E000000000000000000F800000001800AD
:1029A30000000007F0000000000100000003C00069
:1029B3000000380000000003F800000000000000E1
:1029C3000001E0000000300000000001F8000000FA
:1029D300000600000000E0000000300000000000DE
:1029E300FC000000000C00000000E00000000000FC
:1029F30000000000FE000000001C0000000070004A
:102A030000000000000000007E000000001800002D
:102A1300000030000000000000000000440000003F
:102A23000078000000001000000000000000000318
:102A3300C300000000F80000000000000000400098
:102A43000000000FC380000000F800000000000039
:102A53000000C0000000001FE380000003F000003E
:102A6300000004000000C0000000007FE3C000007D
:102A730003E00000000002000001C000000001FFAD
:102A8300FFC0000007E00000000002000003C000D8
:102A9300000003FFF7E0000007C000000000038010
:102AA3000007E00000000FFFE7E000001FC0000088
:102AB300000003C00007E00000001FFFC3F0000098
:102AC3001FC00000000001E0000FE00000003FFF16
:102AD30001F000001FC00000000001F0001FE00033
:102AE30000007FFE01F000001F800000000001FCD9
:102AF300003FE0000000FFF801F800003F80000005
:102B0300000001FC003FE0000000FFE001F80000CE
:102B13003F800000000001FF807FE0000003FF0012
:102B230001F800003F800000000000FF80FFE0008C
:102B33000007E40000F800003F000000000001FF70
:102B4300C1FFF000000E000000F800003CE00000B0
:102B5300000001FFE1FFF000001E0000007800000C
:102B630020FC0000000000FFFBFFE000000000006D
:102B73000038000020FFC000000000FFFFFFF0004E
:102B830002800000003C000061FFFC00000000FF29
:102B9300FFFFF0003F000000003C0000E1FFFC00ED
:102BA300000000FFFFFFF007FE000000001C000014
:102BB300F9FFFFC00000007FFFFFF1FFFC000000F2
:102BC300000C0000FFFFFFC00000007FFFFFFFFFBE
:102BD300FC000000000C0001FCFFFFF80000007F78
:102BE300FFFFFFFFF0000000000C0001FC1FFFFCD3
:102BF3000000007FFFFFFFFFE00000000004000172
:102C0300FC01FFFF800003FFFFFFFFFFE000000068
:102C130000000001F80019FF8013FFFFFFFFFFFF13
:102C2300C000000000000001F800000007FFFFFFE4
:102C3300FFFFFFFF8000000000000001F80000001C
:102C430003FFFFFFFFFFFFFF000000000000000184
:102C5300F800000001FFFFFFFFFFFFFE0000000080
:102C630000000001F0000000007FFFFFFFFFFFFCFA
:102C73000000000000000001F0000000007FFFFFE3
:102C8300FFFFFFF80000000000020001F000000059
:102C9300001FFFFFFFFFFFF800000000000200001D
:102CA300E00000000007FFFFFFFFFFE0000000005F
:102CB30000020001E00000000003FFFFFFFFFFE050
:102CC3000000000000070000F00000000000FFFF0C
:102CD300FFFFFFF80000000000070000F000000005
:102CE3000000FFFFFFFFFFFC0000000000070000E3
:102CF3006000000000003FFFFFFFFFFF0000000037
:102D030000070000E000000000000FFFFFFFFFFFCF
:102D130080000000000700006000000000000FFFBB
:102D2300FFFFFFFFC00000000007800060000000FD
:102D3300000007FFFFFFFFFFF00000000007800017
:102D43004000000000000FFFFFFFFFFFF000000046
:102D5300000F80006000000000001FFFFFFFFFFF67
:102D6300FE000000000F80006000000000003FFF35
:102D7300FFFFFFFFFF000000000FC0002000000066
:102D830000007FFFFFFFFFFFFF000000000F800038
:102D9300000000000000FFFFFFFFFFFFFFE0000057
:102DA300001FC000000000000001FFFFFFFFFFFF46
:102DB300FFE00000001FC000200000000001FFFF33
:102DC300FFFFFFFFE402FFE4001FC000000000005C
:102DD3000003FFFFFFFFFFE40000FFFFC01F8000B1
:102DE300100000000007FFFFFFFFFE0000007FFF51
:102DF300FC3F800030000000000FFFFFFFFFFE00DC
:102E030000000FFFFFBF800010000000000FFFFF56
:102E1300FFFFFE00000007FFFF9F80001800000077
:102E2300003FFF87FFFFFF00000000FFFF8F000050
:102E33001C000000003FF007FFFFFF000000003F01
:102E4300FF8700003C000000007B000FFFFFFF0036
:102E53000000001FFF8200001C00000001000007AB
:102E6300FFFFFF8000000001FF0000001E000000C4
:102E730000000007FFEFFF80000000001F000000BC
:102E83001E00000010000007FFCFFF8000000000BD
:102E9300039C00001F000000F0000007FF83FF8079
:102EA3000000000000FE00001F80001FE00000077C
:102EB300FF01FF800000000000FC00001F8000FFF6
:102EC300C0000007FF00FF800000000001FC0000BD
:102ED3000F0003FF00000003FE007F8000000000DE
:102EE30001FC00001F8017FE00000007FC001FC04C
:102EF3000000000001FC00000F807FFE00000007BF
:102F0300F8001FC00000000001F800000FC0FFFC24
:102F130000000003F80007C00000000003F80000F1
:102F23000FC1FFF800000003F00003C00000000021
:102F330003F0000007E3FFF000000007E00001C01A
:102F43000000000003F0000003FFFFE000000003A7
:102F5300E00000E00000000003E0000003EFFF805A
:102F630000000003C00000200000000007C00000B4
:102F730003E7FF00000000038000002000000000C2
:102F830007C0000003C3FE000000000300000000B0
:102F9300000000000F80000001C3E00000000003F8
:102FA30000000000000000001F0000000041C000FE
:102FB3000000000000000000000000001E000000F0
:102FC30000310000000000000000000400000000C9
:102FD3001E000000007F000000000000000000064B
:102FE3000000000018000000007F00000000000047
:102FF300000000070000000030000000001F8000F8
:103003000000000400000003000000002000000096
:10301300001F80000000000C00000003E00000001F
:1030230040000000000FC0000000000C000000037F
:10303300F000000000000000000FF0000000001C82
:1030430000000003F0000000000000000007F8008B
:103053000000001C00000003F80000000000000056
:103063000003F8000000003C00000003FC00000027
:10307300000000000001FC000000003C0000000113
:10308300FE000004000000000000FC000000007CC3
:1030930000000001FE00000C0000000000007E00A4
:1030A300000000FC00000001FF00003000000000F1
:1030B30000001F80000000FC00000000FF0000F083
:1030C3000000000000000F00000001FC00000000F1
:1030D300FF8001F00000000000000780000001F8FD
:1030E300000000007FC007F0000000000000038024
:1030F300000003F8000000007FC01FC000000000B4
:10310300000000C0000003FC000000003FE01FC0FF
:103113000000000000000020000003FC000000008D
:103123003FE03F800000000000000000000003F8C3
:10313300000000001FF07F000000000000000000FE
:10314300000007F8000000001FF9FE000000000067
:1031530000000002000007F8000000000FFBFE0063
:103163000000000000000001000007F8000000005C
:1031730007E7FC000000000000000000E00007F08B
:103183000000000003C7F000000000000000000082
:103193007E000FF0000000000307E00000000000C5
:1031A300000000003E000FF0000000000107E000F7
:1031B30000000000000000001FC00FF0000000002E
:1031C300078E000000000000000000000FFC1FE05D
:1031D300000000001FF200000000000000000000DB
:1031E30007FFDFE000000001FFF000000000000027
:1031F3000000000001FFF3E000000007FFE0000013
:10320300000000000000000000FFF0600000001F4D
:10321300FF8000000000000000000000007FF07845
:10322300000000FFFF00000000000000000000009D
:10323300001FF0FF800001FFF80000000000000005
:1032430000000000001FF8FFFB0003FF4000000028
:1032530000000000000000000001FFFFFFF1046018
:10326300000000000000000000000000000003FF59
:10327300FFFA000000000000000000000000000052
:10328300000001FFFFC0000000000000000000007C
:10329300000000000000003FF200000000000000FA
:1032A300000000000000000000000000000000001B
:1032B300000000000000000000000000000000000B
:1032C30000000000000000000000000000000000FB
:1032D30000000000000000000000000000000000EB
:1032E30000000000000000000000000000000000DB
:1032F30000000000000000000000000000000000CB
:1033030000000000000000000000000000000000BA
:1033130000000000000000000000000000000000AA
:10332300000000000000000000000000000000009A
:10333300000000000000000000000000000000008A
:10334300000000000000000000000000000000007A
:10335300000000000000000000000000000000006A
:10336300000000000000000000000000000000005A
:10337300000000000000000000000000000000004A
:10338300000000000000000000000000000000003A
:10339300000000000000000000000000000000002A
:1033A300000000000000000000000000000000001A
:1033B300000000000000000000000000000000000A
:1033C30000000000000000000000000000000000FA
:1033D3000000000000000007D4000000000000000F
:1033E30000000000000000000000007FFFA00000BC
:1033F300000000000000000000000000000001FFCA
:10340300FFFE0000000000000000000000000000BC
:1034130000003DFFFFFE0AFA8000000000000000EC
:10342300000000000003FC7FFFC007FFF80000005E
:1034330000000000000000000007F81FD000007F1C
:10344300FF0000000000000000000000001FF82043
:103453000000001FFFC0000000000000000000008B
:10346300003FF0F000000007FFE000000000000054
:103473000000000000FFEFF000000002FFF000007A
:10348300000000000000000001FF0FF0000000003A
:103493003FF80000000000000000000003FE07F8F2
:1034A300000000000FF0000000000000000000001A
:1034B3000FF807F80000000003C3E000000000005D
:1034C300000000000FC007FC000000000101F00035
:1034D30000000000000000003F0007FC00000000A7
:1034E3000003FC000000000000000000600007FC77
:1034F3000000000001C3FC00000000000000000009
:10350300400007FC0000000003F3FF000000000080
:1035130000000000000003FC0000000007FFFF00A4
:103523000000000000000000000003FC0000000099
:1035330007FCFF800000000000000000000003FE05
:10354300000000000FF83FC000000000000000383A
:10355300000001FE000000000FF01FE0000000006B
:1035630000000060000001FE000000001FF007E003
:1035730000000000000000C0000000FE000000008A
:103583001FE003F000000000000003C0000000FE85
:10359300000000003FE001F00000000000000F8089
:1035A300000000FE000000007FC000F800000000E3
:1035B30000003F800000007E000000007FC0003C50
:1035C3000000000000007F000000003C000000003D
:1035D3007F80000E000000000000FE000000001EBF
:1035E300000000007F000006000000000001FC0056
:1035F3000000001E00000000FF00000600000000A5
:103603000003F8000000000E00000000FE000001AF
:10361300000000000007F8000000000E0000000199
:10362300FC000000000000000007F0000000000E96
:1036330000000000F800000000000000000FF00090
:103643000000000600000001F00000000000000080
:10365300001FE0000000000200000001F000000075
:1036630020000000001FC000000000020000000353
:10367300C000000018000000001FC0000000000090
:1036830000000003C000000018000000001F8000BD
:103693000000000000000003800000000C00000098
:1036A3000020C00000000001000000060000000030
:1036B3001E0000000020F0000000000000000006D3
:1036C300000000000F00000000E0F800000000010F
:1036D30080000004000000000F80000001F1FE00E4
:1036E3000000000080000000000000000F800000C8
:1036F30001F1FF8000000001C00000000000000095
:1037030007C0000003FBFFE000000001E000001021
:103713000000000003E0000003FFFFF000000001D1
:10372300F00000300000000003F0000007F9FFF88C
:1037330000000001F00000600000000003F0000042
:1037430007F07FFC00000001F80000F0000000001B
:1037530001F0000007E03FFF00000001FC0003E070
:103763000000000001FC00000FE00FFF80000001DB
:10377300FC0007E00000000000FC00000FC003FF96
:1037830080000001FE000FE00000000000FC0000CC
:103793000FC000FFE0000003FF003FE00000000057
:1037A300007C00000F80007FF0000001FF807FE0BD
:1037B30000000000007E00000F800007F0000003FF
:1037C300FF80FFE000000000007F00000F0000000A
:1037D3007C000003FFC1FFC000000000003F0000A9
:1037E3000E00000006000003FFC7FFC0000000003A
:1037F300016F00000F00000000000003FFE7FFC09F
:10380300000000001FC200000E00000000000003C3
:10381300FFFFFFC000000000FFC000000E0000001B
:10382300003E8001FFFFFFC00000000FFFE3000028
:103833000C000000001FFE03FFFFFF800000003F9D
:10384300FFE380000C000000001FFFF3FFFFFF8079
:103853000000007FFFE78000180000000007FFFF63
:10386300FFFFFF80000001FFFFFF80000800000052
:103873000007FFFFFFFFFF80000003FFFF8F8000B3
:10388300180000000003FFFFFFFFFF0000001FFF01
:10389300FF8FC000080000000001FFFFFFFFFF8053
:1038A30000003FFFF80FC000000000000000FFFF12
:1038B300FFFFFFFFA800F0BC8007C000000000006E
:1038C30000007FFFFFFFFFFFFFFC00000007C000B9
:1038D3000000000000007FFFFFFFFFFFFFF000007C
:1038E3000007C0000000000000003FFFFFFFFFFFD4
:1038F300FFC00000000FC0001000000000001FFF09
:10390300FFFFFFFFFFC00000000FC000100000001A
:1039130000000FFFFFFFFFFFFF0000000007C000D4
:103923003000000000000FFFFFFFFFFFFC0000005E
:103933000007C00010000000000007FFFFFFFFFFAB
:10394300F00000000007800038000000000003FFC3
:10395300FFFFFFFFE00000000007800038000000C9
:10396300000003FFFFFFFFFFC00000000003800013
:103973007800000000000FFFFFFFFFFF00000000C2
:10398300000380003800000000003FFFFFFFFFFE40
:103993000000000000078000780000000000FFFF27
:1039A300FFFFFFF800000000000380007800000024
:1039B3000001FFFFFFFFFFF0000000000001000017
:1039C3007C0000000003FFFFFFFFFFF80000000082
:1039D30000018000FC000000000FFFFFFFFFFFFE5F
:1039E30000000000000300007C000000000FFFFF48
:1039F300FFFFFFFE0000000000010000FC000000CC
:103A0300003FFFFFFFFFFFFF00000000000000007A
:103A13007800000000FFFFFFFFFFFFFF0000000032
:103A230000010000FC00000001FFFFFFFFFFFFFF9C
:103A3300C000000000000000FC00004003FFFFFF87
:103A4300FFFFFFFFC0000000000000007C001FE735
:103A5300800AFFFFFFFFFFFFE000000000020000FD
:103A63007C07FFFF8000003FFFFFFFFFE000000037
:103A7300000200007E0FFFFC0000003FFFFFFFFF7E
:103A8300F8000000000000007EFFFFF00000003F90
:103A9300FFFFFFFFF8000000000200007DFFFFC0F2
:103AA3000000007FFFFFFFFFFC0000000006000096
:103AB30078FFFFC00000003FFFFFFDFFFC00000098
:103AC3000006000038FFFF000000007FFFFFF00743
:103AD300FF000000000E000030FFF8000000007F30
:103AE300FFFFF0003F800000000E000000FFC00059
:103AF3000000007FFFFFF00000800000001E0000B8
:103B0300187F8000000000FFFEFFF80000000000A7
:103B1300001E00001EC000000000007FF8FFF00040
:103B2300000E0000001E00001F800000000000FFC8
:103B3300E07FF0000007C000003E00000F8000009F
:103B4300000000FFE07FF0000003FC00003C0000E9
:103B53001FC00000000000FF803FF0000001FF00D5
:103B6300007E00000FC00000000000FF001FF000F7
:103B73000000FFF0007C000007C00000000001FE11
:103B8300000FF00000007FF800FE000007E00000D7
:103B9300000000F8000FE00000003FFE00FC000002
:103BA30007F00000000001F80007F00000000FFF1D
:103BB30081FC000007F00000000001F00007E000B6
:103BC300000007FFE3FC000001F80000000001C053
:103BD3000003F000000007FFF3F8000001F8000005
:103BE300000001800001E000000001FFF7F8000081
:103BF30000F80000000001000001F0000000007F59
:103C0300F3F0000000F80000000000000000E000F6
:103C13000000003FF1F00000003C00000000000045
:103C2300000060000000000FE0E00000003E000024
:103C3300000008000000200000000003C0E00000B6
:103C4300001C000000000C00000020000000000029
:103C5300C0800000001E00000000180000000000EB
:103C6300000000004000000000060000000070009B
:103C730000000000000000007F00000000060000BC
:103C83000000700000000000000000007F00000042
:103C9300000300000000F00000000000000000002E
:103CA300FF000000000000000001F0000000080019
:103CB30000000001FE000000000080000003E0009F
:103CC3000000080000000001FC00000000000000EC
:103CD3000007E00000000C0000000003FC000000EF
:103CE30000000000000FE00000000C0000000003D3
:103CF300F800000000001000001FE00000000C00AE
:103D030000000007F800000000001000001FC000C2
:103D130000000F0000000007E000000000000C009E
:103D2300003FC00000000F800000000FC000000033
:103D330000000E00007FC00000001F800000003F55
:103D43008000000000000780007FC00000001F808B
:103D53000000003F00000000000007C000FF8000DB
:103D630000000FC00000007C00000000000003E022
:103D730000FF000000000FE00000007800000000DA
:103D8300000001F001FF000000001FE0000000F050
:103D930000000000000001FC01FE000000000FE035
:103DA30000000180000000000000007F03FE00000F
:103DB30000000FF000000000000000000000007F82
:103DC300C7FC000000000FF0000006000000000028
:103DD3000000003FE7FC000000000FF000000000BF
:103DE300000000000000003FFFF8000000000FF09B
:103DF30000000000000000000000001FF9F00000B8
:103E030000000FF800004000000000000000001F49
:103E1300F8700000000007F80007800000000000B1
:103E230000000007F8200000000007F8001E000053
:103E33000000000000000001F0300000000007F85F
:103E430001FE0000000000000000000078FC0000FC
:103E5300000007FC07FC0000000000000000000059
:103E63000FFE0000000003FC0FF000000000000044
:103E73000000000003FF8000000003FC3FF000008F
:103E8300000000000000000003FFE000000001FF4D
:103E9300FFC00000000000000000000001FFFA0066
:103EA30000000183FF80000000000000000000000C
:103EB300007FFF0000000303FF000000000000007C
:103EC30000000000001FFFC00007DF87FC000000A8
:103ED30000000000000000000001FFF001FFFFC729
:103EE300E0000000000000000000000000000FBE22
:103EF30017FFFFFEC00000000000000000000000EC
:103F0300000000000BFFFFE20000000000000000C3
:103F1300000000000000000000FFFF200000000080
:103F23000000000000000000000000000002B200DA
:103F3300000000000000000000000000000000007E
:103F4300000000000000000000000000000000006E
:103F5300000000000000000000000000000000005E
:103F6300000000000000000000000000000000004E
:103F7300000000000000000000000000000000003E
:103F8300000000000000000000000000000000002E
:103F9300000000000000000000000000000000001E
:103FA300000000000000000000000000000000AA64
:103FB300AAAAAAAAAAAAAAAAAAAAAAAAAAAAAAAA5E
:103FC300AAAAAAAAAAAAAAAAAA555555556AAAAAE2
:103FD300AA540000056AAAAAAA555555556AAAAA61
:103FE300AA94000005AAAAAAAA94000005AAAAAA4C
:103FF300AA94444445AAAAAAAA94111105AAAAAA52
:10400300AA95044415AAAAAAAAA5411056AAAAAA1F
:10401300AAA950415AAAAAAAAAAA54056AAAAAAA4C
:10402300AAAA9405AAAAAAAAAAAA9405AAAAAAAA63
:10403300AAAA9445AAAAAAAAAAAA9405AAAAAAAA13
:10404300AAAA50016AAAAAAAAAA940405AAAAAAA35
:10405300AAA5001016AAAAAAAA94000005AAAAAAA9
:10406300AA94044405AAAAAAAA94111105AAAAAA61
:10407300AA94444445AAAAAAAA95111115AAAAAAC0
:10408300AA555555556AAAAAAA540000056AAAAAB0
:10409300AA555555556AAAAAAAAAAAAAAAAAAAAA11
:1040A300AAAAAAAAAAAAAAAAAAAAAAAAAAAAAAAA6D
:1040B300AAAAAAAAAAAAAAAAAAAAAAAAAAAAAAAA5D
:1040C300AAAAAAAAAAAAAAAAAAAA9555AAAAAAAAB7
:1040D300AAA940005AAAAAAAAA94000005AAAAAAB1
:1040E300AA400000006AAAAAA9001555001AAAAAA4
:1040F300A4006AAA5006AAAAA4006AAAA406AAAAA5
:1041030090001AAAA901AAAA901006AAA901AAAA0C
:10411300406401AAAA406AAA4069006AAA406AAA3E
:10412300406A401AAA406AAA406A9006AA406AAA4C
:10413300406AA401AA406AAA406AA9006A406AAA1E
:10414300406AAA401A406AAA901AAA900501AAAA2C
:10415300901AAAA40001AAAAA406AAA90006AAAAB8
:10416300A4016AAA4006AAAAA9001555001AAAAA78
:10417300AA400000006AAAAAAA94000005AAAAAA53
:10418300AAA940005AAAAAAAAAAA9555AAAAAAAA5B
:10419300AAAAAAAAAAAAAAAAAAAAAAAAAAAAAAAA7C
:1041A300AAAAAAAAAAAAAAAAAAAAAAAAAAAAAAAA6C
:1041B300AAAAAAAAAAAAAA6AAAAAAAAAAAAAAA5AEC
:1041C300AAAAAAAAAAAAAA46AAAAAAAAAAAAAA4119
:1041D300AAAAAAAAAAAAAA406AAAAAAAAAAAAA4050
:1041E3001AAAAAAAAAAAAA4006AAAAAAAAAAAA4034
:1041F30001AAAAAAAAAAAA40006AAAAAAAAAAA4083
:10420300001AAAAAAAAAAA400006AAAAAAAAAA4067
:104213000001AAAAAAAAAA4000006AAAAAAAAA40B6
:1042230000001AAAAAAAAA40000006AAAAAAAA409B
:10423300000001AAAAAAAA400000006AAAAAAA40EA
:104243000015555AAAAAAA40101AAAAAAAAAAA40AD
:104253006406AAAAAAAAAA41A406AAAAAAAAAA461C
:10426300A901AAAAAAAAAA5AA901AAAAAAAAAA6A8F
:10427300AA406AAAAAAAAAAAAA406AAAAAAAAAAAEF
:10428300AA901AAAAAAAAAAAAA901AAAAAAAAAAADF
:10429300AAA406AAAAAAAAAAAAA406AAAAAAAAAACF
:1042A300AAA95AAAAAAAAAAAAAAAAAAAAAAAAAAABC
:1042B300AAAAAAAAAAAAAAAAAAAAAAAAAAAAAA966F
:1042C300AAAAAAAAAAAAAA916AAAAAAAAAAAAAA4AA
:1042D30015AAAAAAAAAAAAA4006AAAAAAAAAAAA9C1
:1042E300011AAAAAAAAAAAA90046AAAAAAAAAAAA73
:1042F3004051AAAAAAAAAAAA90146AAAAAAAAAAACE
:10430300A4051AAAAAAAAAAAA90146AAAAAAAAAA53
:10431300AA4051AAAAAAAAAAAA90146AAAAAAAAAAD
:10432300AAA4051AAAAAAAAAAAA90146AAAAAAAA33
:10433300AAAA4051AAAAAAAAAAAA901469AAAAAA8E
:10434300AAAAA401146AAAAAAAAAA900441AAAAAF0
:10435300AAAAAA401106AAAAAAAAAA900441AAAA8A
:10436300AAAAAAA401106AAAAAAAAAA900441AAAD4
:10437300AAAAAAAA40111AAAAAAAAAAA90041AAA7D
:10438300AAAAAAAAA4011AAAAAAAAAAAA9001AAA04
:10439300AAAAAAAAAA406AAAAAAAAAAAAA95AAAA39
:1043A300AAAAAAAAAAAAAAAAAAAAAAAAAAAAAA6CA8
:1043B300517472749274727451745174727C926CED
:1043C3003163CF534D4B2D5B8F7C7295359D759D1E
:1043D300959D959D759D95A5D7AE18A5D795757C8B
:1043E30092430C2A2932AA430C42EC326A19E7227F
:1043F300482A69538F6C33536F4B6E220722063260
:10440300893A8B3A8D2A2C116921E922274B8C4B4F
:104413006D3B0C19E8014511C7226A2A6A224A1921
:10442300E911C82A6B4B8F641174B38D359576955A
:10443300779DB8A5D8957784D463F1430D324A2A82
:104443002A3AAC536F4B4F430E3ACD2A4B3ACD6CBD
:104453003174727CB27CB27492747274927C926C7A
:104463001063CF536E534D63CF7C928D3595559D1D
:10447300969D959D759D95ADF7B638AE179DB6740F
:10448300714B2C2A49326A32AB3AAB326A22081991
:10449300E73AEB5BD0747363F13ACC19A62A273A57
:1044A300CA326A3A8D21CB116911883ACA434B4B00
:1044B3006D3B0C19E8096519E82A8A2A8B226A11CF
:1044C300C811A82A6B538F64317CB38D3595769DC3
:1044D300B89DB89DB8955684D46C11430D2A2A2AE9
:1044E3004B3ACC4B4F430E42ED3AAC2A4B3ACD7488
:1044F300727C927CB384F48D148D1484F484F474EC
:104503007274516C316C117C728CF495559D769D4F
:10451300759D759D759D95A5D7AE18A5F79DB67428
:1045230092538E42EC32AB328B3ACB3ACC2A69327D
:10453300CA32AA6C526C336C325B8F21E72A073A7A
:104543008A324A21CA2A0C114911884B4D53AD5B5B
:10455300CE4B4D222811861A082A6A224A1A0919B3
:10456300C819E832AC5BD06C527CB48D358D56954E
:1045730077957795568D3684D56C324B2E2A4A2201
:1045830009324B3ACD3AAC3AAC328C220A326C7CCB
:10459300B37472747284D395559D969D9695768D5A
:1045A300148D159535955595769D969D969D5595A6
:1045B3003495549D759D759D759D7595558D347C6C
:1045C300D36C315BAF4B4D430D4B6E536E430C536A
:1045D3008E4B4C747374747433534E42CB21C64266
:1045E300CA63AF21CA5B712A2C3AAC4B4D5BCE64D4
:1045F30010538E326A22082A6A32CB2A8B2A4A2225
:1046030029224A430D63F16C527CB384F484D4842D
:10461300D484D484D484F58D157C93536F328B1951
:104623008821E93A8C3AAC42ED42CD2A2B326B8495
:10463300D36C3063CF74518D149D969D969D769D5A
:1046430096A5D7B618B639AE18ADD79D7695358DE4
:104653001495559D969D768D1484B27C727C927CC4
:10466300B374726C3163F05BD06C316C525BAF32FC
:1046730089747163F16BF274533A4B4AEC2A08CE96
:10468300DBE7DF5B705B504ACE6BD16BF05BAE6CEC
:10469300305BCF430C3ACB4B4E53AF4B8F4B6E3209
:1046A300AC32AC4B4E64116C52747274726C316CDC
:1046B3001174527C938CF58D3684D45BB03AAC2163
:1046C300C82A4A4B0E536F5BD05B903ACD3ACD8CE0
:1046D300F46C305B8E6C1084D395559D769D76ADCE
:1046E300D7B659C6BBC6BBBE7AAE18A57695359567
:1046F300149D559D969D7584D3741063F06C10744E
:10470300516C317452747274527CB37CD474528D74
:10471300345BAF5BB09557E7BF7C933208D73CE778
:10472300BEF7FF94F56BB1A578D71EDF5E95557C78
:104733009274515BAF538E64116C526C326C325B6A
:10474300B0538F63F174737CB37CB374926BF06B6F
:10475300F1745284B48D36955684D45BB03AAC323E
:104763004B42CD63D16C1274736C324B2E4B2E952E
:10477300357C9274107C728CF4953595559D76AD8D
:10478300D7B639C69AC69ABE39ADD79D76953595B3
:10479300559D559D5595357C926BF063AF63AF6C1A
:1047A3001174317CB384D47C937CB384F484D48437
:1047B300D36C3184D4530EADF9F7FF8493EFBFEF7D
:1047C300BFFFFFDF3DD71DF7FFF7FFDF5E7C51958E
:1047D30055951484B37C7284D47CD47CB484F47CE7
:1047E300B474737CB385158D3695568CF474526C02
:1047F300117C938D159D77955784D463D042ED4AF0
:10480300ED536F6C3274537C947453536F538F9581
:104813005584D3849284D38D148CF48D1495359D53
:1048230076ADD8B639B618ADB7A5769D3595149D36
:1048330076955595148CF47C726BF05B8F5B8E745C
:10484300317C728CF58D157CB37C9384D48D159556
:10485300769D97849363B08CD5F7DFEFDFF7BFFFC7
:10486300FFE75CD6FBFFFFE75DDF3DE73EADD8AD7D
:10487300B7A5B7955695559D969D9795779DD88DD8
:104883005684F484F595569D979DB795567C9374FD
:104893003284D49D569D979D7784D46BD14B2E53F0
:1048A3004F63B074737C737CB47C7363B063F194B3
:1048B300F495359D559D75A576A5969D558CD37C10
:1048C300728CF4A576A5969D55951494F49514A52C
:1048D30076ADD7A597951484926BF063AF6BF07C9C
:1048E300728CD4955695357C726BF084B3A5D7A59D
:1048F300D7A5978CD473D0BE19FFFFEF7EF7BFF710
:10490300BEFFFEFFFEF7BDF7BEF7DFF7BFE75EF7BB
:10491300FFADD7B618B6599D76ADF9B65A95778DD2
:10492300368D158D159556A5D8A5D895357C7274F9
:10493300118CD49D97A5B89D7784D46C115B8F5B44
:104943006F63F17C9384F584D474736C326C32A5F9
:10495300968CD384929514A596A57695148CF38C96
:10496300D38CB38CB3849284928CB394F49D35AD81
:10497300D7B639B619A5979515847274117C5194DD
:10498300F48CD48CF49515849374117C929D76A544
:1049930096A5767C31BE19F7FFEF7FFFFFFFFFFF80
:1049A300DEF7BCFFDCFFFCFFFDFFDDFFBEFFDFF733
:1049B300DFB5F89D55ADB7B619ADF8A5B8B65A9D94
:1049C3007795568CF584D48D1595358CF47C727C53
:1049D300528CF5A597ADD8A5B895367C736BF16B62
:1049E300D1743284B48D368D3684D57CB47CB49541
:1049F3001495149D55A576A596A576A576A576A5B9
:104A0300769D3594F494F49D35AD96B5D8B618BE1D
:104A130018C67ABE59B5F8A596951494D4951495ED
:104A230014ADB7A5767C316BAF84529D56ADB7AD4F
:104A3300D8A57694D4B5F8E75DFFBFFFDFEF3DFF60
:104A4300DDFFBBFFDAFFDAFFDAFFDCFFBEFFDFFFCC
:104A5300FF9D359D15BE59BE39B5F8ADD8ADD8A566
:104A6300B89D7684D47C7374527C727C727C52843D
:104A7300939515A597ADF8ADF9A5B7951584937CD6
:104A83007384948CF59D579D779D57953695368CF9
:104A9300D38CB394D39D55A5769D5595149D14A59C
:104AA30056A596B5F8CE9BE75DF7DFFFFFFFFFF74F
:104AB300DFF7DFDF3DC65AB5B79D3594D49D149D0E
:104AC30015A57694F46BAF632D7C1094D49D14AD2F
:104AD300B7B5D8AD969D14AD55E71CFFFFFFDEFFBC
:104AE300BCFFDBFFD9F7B7F798FFDAFFBDF77DDE31
:104AF300DB84318452A576A576B619BE5AA5B8A52E
:104B0300B8955684B47C5274327C527C5274318C86
:104B1300D49515A597ADD8B619B619A5B8953695F8
:104B2300168D1595369D77A5B8A5B8A5B8A5B89DDA
:104B33003594F49D35ADB7A5558CB29D55CE9AEFFE
:104B43009EEFBFF7DFFFFFFFFFF7DFEF9EE75DF7A6
:104B5300DFF7DFE75DCE9AC639B5D7AD96B5B7B502
:104B6300D784517BF0A555C619B5B7AD96BE19BE0E
:104B730019D6DCB5B6C638A4F38C51FF7EFFBEFF51
:104B8300BBF798F775F795FFB6FF98FF9BFF9DFF5F
:104B9300FFFFDFDEDCAD97AD97B5F8A577ADB8A520
:104BA300B8953684B37C7384938CD48CF48CF49D45
:104BB30056A597ADD8B619B619B619ADF9A5B8A5C6
:104BC300B8A5979D77A598A5D8ADF9ADF9AE19A568
:104BD30055ADB6ADB7A575A576BE59E75DFFFFEF39
:104BE300BFEFBFF7DFF7DFF7DFF7DFFFFFFFFFEF12
:104BF3009EF7DFFFDFFFDFFFFFFFFFFFFFFFFFE7A3
:104C03003DBDF8BDD7EF5DFFFFF7DFF79EFFFFFF69
:104C1300FFFFFFF7BEFFFFEF3CD639FF9EFFDEFF2E
:104C23009AE6B4DE91EF52F794EF35F739FFDEEFF2
:104C33005DFFFFFFDFBE199D15A597ADB8ADB8ADFC
:104C4300B895368CD48CD495159D76A5B7ADD8ADD3
:104C5300F8BE39BE5AB639ADF9ADD8ADD8ADD8B670
:104C630019ADD8A5B8A5B8ADF9ADF9AE19B63AA541
:104C7300769D148CB39D14CEBBFFFFFFFFE73DFF72
:104C8300FFF7FFF7BFF79FEF9EF79FF7BFF7BFEF62
:104C93005DF79EF79EF7BFFFDFF7BFEF7EEF7EFF67
:104CA300FFFFFFFFFFF7BEF77EEF7DF79EF7BFEF36
:104CB3007EDEDCF7BEF77DF79DFFFFF75DF75CFF58
:104CC30059E6B4CE4FD68EE6F1F735FF59FFBDFF57
:104CD300FFF79EFFDFD69B94D49D15A5979515A549
:104CE300989D5695369D56A576A597ADB7B5F8B55B
:104CF300F8BE5ABE5AB5F89D569D369D56A597AD3A
:104D0300B8A598A597A5B8A5B8A5B8A5B8A5D89DE1
:104D1300358CB2AD76EF7EFFFFE73DE71DFFFFF772
:104D2300BFEFBFF7BEF7DFFFFFFFFFF7BFF79FF749
:104D3300BFFFDFFF9FFF7EFF9FFF7FF75EF77EF7DB
:104D43005EF75EF77EFF9FFF7EF77EF77EF79FF7A6
:104D53009FFFDFF7BEFFFEF79DEF1CF75DFF7CF7BC
:104D63005AF758DEB2C5CED671FFD8FFFCF77CFFE9
:104D7300DFE71CB5D78C938CB394F494D4ADD89D52
:104D8300569D76A597ADD8A5B79D769D569D76A5DC
:104D930097B5F8B619A5978CD484B38CF59D569521
:104DA3003695369D569D979D979D56955695569D3E
:104DB3005594B2FF7FFF7FEF3EFFBFFF3FEEDCE77F
:104DC3007DF7FFEF7DFFDEF7DEF7DEE6DCFF9FF723
:104DD300BFFF9FFF3FFEFEFEDEFEBDF6FDF71EF7A3
:104DE3005FFF7FFF5FFF1EF6FEF73FF77FF79FFF33
:104DF300BFFFBFF79EF79EF77EF77EFF7EFF9EF70E
:104E03003CFFBDFFBCE6F8F7BBFFFDE73AFFFFF74A
:104E1300BEDF1CA555847174108CB384B3A5B7A5EC
:104E2300969D76A596ADD7A5B7953584B384B395EE
:104E3300359D97A5B795357C727C9384D47C9384F8
:104E4300B384B38D159D769D979D7695358D35A548
:104E530055D6DBFFDFFF7FFF7FEEFEEE3BF6BCE7C1
:104E63007DF7FFF79DFFBEEFBDEF9EE6DCFF5EF72C
:104E73007FF75EFEFEFE7DFE1CF5FBF67CFF1EFF4C
:104E83003FFF5FFF3FFEDEFEBEF6FFF75FEF7FFFF4
:104E9300BFFFDFFFBFFFBFFF9FFF9FFF7EFF7ED6EA
:104EA3007AEF5DFFFFF79EEF7DEF7DFFFEE77CFF6F
:104EB300FFF7DFF7FFD71C9D348CD39D7595149DA9
:104EC300769D559D96ADD7A5B78D147C937C928422
:104ED300D48D158D3584B36C31747284D37C927404
:104EE3007274727CB384F48D358D158D148D14CE4C
:104EF300BAFFFFFF5EF6FEF71EEEBDEE5CF6BCEFFB
:104F03007DEFDEFFBEFF9EE73CE73DEEDCF6FEFFF6
:104F13007FF6FEFE9DFE5CFDFBEDDAEE3BF6DDFF6C
:104F23003FFF3FFEFFFE9EF67DF6BEEF1FEF3EF70F
:104F33009FFF9EFFBFFFBFFF9FFF7FF75EF75ED61A
:104F43005AE71CD679FFFFFFFFFFFEFFFEF7FEEFD8
:104F5300BEE77EFFFFF7FFEF9E9D559514A5B79D16
:104F63005695359D769D9795568CF47C937C938CC2
:104F7300F48CF48CF47C9374317C938CF484B3744C
:104F8300527431745284B38D148D158D159535F784
:104F9300BFFFDFFF3EFFBFEEFEEEDEF67CE63BF734
:104FA3007EF7BEFF9EF75DDEDCE6FCF6FEF6DEFF77
:104FB3001EEE7CEE1BFE3CFE3CF5FBE61BE65CFFB7
:104FC3005FFF1FFEBEF65DEE3DEE7DEEDEEF1EF7EC
:104FD3005EFF7EFF9FFF9FFF9FFF9FFF5EF75EEEDB
:104FE300FCF75EB555BDD7FFDFFFFFE75CF7DEEFEC
:104FF3009EFFFFE75DAD96ADB7A5559D769D569D8A
:105003003695359535953695168CF58CF58D159524
:10501300358D158D1484B37C928CF495358CF47C8A
:10502300727451745284B39535955695569D76FF97
:10503300FFF75EFF1EFF3FCDFACDD9D599EE9DFF59
:105043009FF7BFFF9FF6FCE6BBEEDDFF1FFEBEF63C
:105053007CEE1BEDDAF5DBF5DBE5BAE5FAE65CFFA2
:105063003FFEFFF67DEE1CEE1CEE3DEEBEF6FFFFAF
:105073007FFF7FFF9FFF9FFF9FFF9FFF9FFF9FE696
:10508300DCF75EDEBB7BCFDEDAFFFFFFFFF7BEF7A9
:10509300FFFFFFDF3DC6598CD3A576BE5A9D76959B
:1050A30035951595369D579D779D779D779D77957A
:1050B300568D158D158CF484D495359D7695358C48
:1050C300F47C9374517C728CF495559D769D97FF77
:1050D3009EFF9FF6FDE65BDE3BD5DACD78FF7FFFD3
:1050E3009FFF9FFF5EEE7BEEBCF6BDFEDEFE7DED19
:1050F300DAF5DAF5DBF5BAE579E599EE5CFF1FF64B
:10510300FFF69DEE3DEE1CEDFCF63DF69EFEFFFF29
:105113003FF75EFF5EFF5FFF5FFF5FFF7FFF7FEE97
:10512300DDF73DFF7EC5D79CB2D699DEFADEFBF7ED
:10513300FFDF3CADB6CEBAB5F8A576A596ADB7956B
:105143001595369D57A5B8AE1AB61AADD9A5B89D13
:10515300979D769D979D979D97ADF8AE19A5D8A578
:10516300B78D147C72745284D39555A5B7ADF8EE00
:10517300FCFF9FFF7FFF1EF6FEDE1BF67DFF3FFF5A
:105183005EFF7FFEFDE5F9FEBDFEBDFE7DF5DBEDB9
:1051930079F59AF5BAED79E579EDFBFEBEFF3FEEC1
:1051A3005CE61CEDFCF61CF63DFE5EFE9EFEDFF6A5
:1051B300FEF71EF71EF71EF71EF71EF71EF71EFF5C
:1051C3007FF73EEF1DFFDF94718C718C509D13D6DA
:1051D300DADF5C8CD273EF8CB295149D5595149DD8
:1051E300769D569D76A5B8B61AB65BAE1AA5B8A538
:1051F300B8A5B7ADF8B639B639B65ABE5AAE19A581
:10520300B795157C9384B39535A5B7ADF8AE19F66C
:10521300FCFF5EFF1EDDFA9C1393B1FF3FFF1FFFF0
:105223001EFF5EFEBCE598FEBDFE9DFDFBED59ED48
:1052330018F518ED18E538EDBAFE9DFEDEFE9DE586
:10524300DAE5BAEDBBF61DFE5EFE5EFE7EFEBFFE38
:10525300FEF71EF71EF71EF6FEF6FEF6DEEEDDF790
:105263001EEEFDF75EF73DEF5D9CF3B595AD749DC6
:1052730033A594A5539D339D549D13CEDAADD7AD7D
:10528300D7A57695359D56ADD8B63AAE19A5B89D36
:10529300779D96ADF8B619AE18AE18ADF89D9795F3
:1052A3003584D37C938CF4A597ADF8AE18ADF8FF95
:1052B3003EE67BFFBFD5FA38E62844FEDDFEFEFE60
:1052C300BCFF1DBC32ED77FE9CFD98DC95DC34DC25
:1052D30014F4B7DC96ED59FE3CFE7DFEBEF63CEDC4
:1052E300DBFE1CFE3DFE1CF5FCFE3DFE7FFEDFFEED
:1052F300FFF6FEF6DEF6FEF6FEF6FEF6DEEEBDE6A3
:105303007CF71EF73EFF7EFFBFE71BBDD6B595C6F4
:1053130057AD94BE36BE36B616CED9CEB9E77DC6E6
:10532300BAADF79D559D55A597A5B7A5B7A5D89D2A
:1053330096ADF8AE19A5D8A5B7A5D8A5D8A5B795A4
:105343003584937C528CF4A597ADF8ADF8ADF8D5C0
:10535300D8FF9FFF5FBD16202328238B6FFF7FFE9F
:10536300BCC432D472FE9BFD97DC12D3D1DBF3F4C1
:1053730075EC76ECD7F599F5FBFE5CFE7DED9AF5C1
:105383009AFDDBFDFCFDFCF5DCF5FCFE1DFE7EF667
:105393009EFEFFFF1FFEDFF6DEFEDEFEFFF6DEF6FD
:1053A300FEF73EF71DEF3DFFBFFFDFDEDABDD6C6DA
:1053B30057B5F5C677C677C698DF3AD71AE77CDFC5
:1053C3003BBE589D7595349534953595559D969D61
:1053D30076A5B7A5D89D979D769D97A5B79D9795DB
:1053E3005684D484938D159D969D979D769D76DDE9
:1053F300D8FF9FFF5EDE3A28233064A432FF7EE5A8
:1054030014AB0CFD95FDF7DBCFD36EDB8FDB90F494
:1054130034E3D3F4D7FDB9FDFAFE7CFE1BED38F57A
:1054230039F539F57AF5BBF5BBEDBBF5DCFE3DF699
:105433007DFEFFFF1FFEDFF69EF6BEFEDFF6DEFFFC
:105443003FFF3FF71EEF1DF77EFFFFF7BED699BE66
:1054530016BE36C677C698DF3AE79CE79CE79CD62C
:10546300FABE58ADD69D759D5595559D76A5D7AD7C
:10547300F8B619ADF89D979D569D76A597A5979D6E
:105483007695158CF4951595358CF484B384B3D542
:1054930057E619FF9FFF7F41061800FEDBF639B37D
:1054A3002CD3EFFDF6E40ED30BEB8DE38EE38FE30A
:1054B30091DB92F4F6F599FE5BFE7CED58F518FD51
:1054C30019F4D8ECF8ED5AE55ADD39ED7AF61DFEFC
:1054D300BFFEDFFEFFFEFFFEBFF69EF6BEFEDFFE53
:1054E300FFF71EFF5FF75EEF1DF79EFFFFEF7DBD2A
:1054F300F6BE16C657C657D71ADF1BDF5CD6FAB6F9
:1055030037B617B617B618ADF7A5B6A5B6A5D7AD76
:10551300F8ADF8A59795358D1595359D76A597A585
:10552300979D56951595158CD47C7274317411B46E
:1055330053C515FF9FFF5E8B2E3863FF5DEDD6AA23
:10554300CAF470FD32DB6BEB4BEB0BEB4BF38EE3EF
:105553002FEC13FD37F5B8FEBCFE3ADC54F4D7FC50
:10556300F8F497EC97E4F8DD18D4F8E559F5FCFF67
:105573001FFEBFF67EFEDFFEFFF69EF69EFEFFFEDB
:10558300FFF6DEFF5FFF7FEF1DEF3DFFDFFFDFCEA7
:1055930079AD95BE17B5D6BE37B5F7BE58ADD6AD06
:1055A300D6B5F7B638BE59B639ADD79D769555956C
:1055B300358CF484937C527C5284B395359D76A5C7
:1055C300B79D7695358D1584D47C727C527C52C4FC
:1055D300D58B4ED5F9FF5ED556B431FF5CF616BBBD
:1055E3000BFC6FFC8FEBABF309EAC9FB6BDACADA8E
:1055F300EEF434FD37FDF9FE9BED78D413F496F405
:1056030015EC15E436E4B7E538E579F5DBFE5EFE27
:10561300DFEE3DE5DCEE3DF69FF67EF69EFEFFFFF8
:105623003FF6DEF6FEFF7FFF7EF77EFF9EFFBFDFC6
:105633001C8C71A5559D34A555A576B5F7ADB7ADB1
:10564300D7ADD7B5F8B619B619ADD89D7695358CC3
:10565300D4849374116BD06BD074528CD495359DD4
:10566300979D76953595158CF48CF48CF48CF4D544
:1056730037514772EDFF7EEE3AF65AFF5CF616C3DA
:105683000AFC6FFC4DEB89EAA7FB08FB29D267E311
:105693002EF413FD36FE3AEDB8D473DC13EC14EBA1
:1056A300B4F3F5F477F519F5BBFE3CFE7DFE9FFEE2
:1056B3009FEE3EDDBCDDBBE61DF67EFEBFFEBFFFFB
:1056C3003FFF1FF6FEF71EFF9FFFBFF77EF79EE724
:1056D3003D52AB7C10843194B3A556B5F8BE19ADD9
:1056E300D8ADB7A597ADB7ADD8ADB89D76951584B0
:1056F30093743163AF5B6E638F741184B395159D9F
:10570300769D56953595359535953595569535CC84
:10571300D559674987FF7EFEFCE5D7FEB9FEB8CBB6
:105723004AFC8EF3EAE348F2E7FAE8E245F32BF3A7
:10573300B0EC13FD57FE5BD494B34FDBF3D351F4BA
:1057430035FCB7FD5AFDDBFE5DFE9DFE7DFE5DFE75
:10575300BFFEBFEE3DDD9BE5DCFEBFFF1FFEDFF6B8
:10576300DEFF5FFF3FEEFDFF7FFF9FF77EF7BFE7A3
:105773005E29675B0D634E74119D15ADB7B5F9AD29
:10578300D8A5979D569D56A5779D768CF47C73631B
:10579300D0536F4AED42ED532E6BF084B495359D93
:1057A300779D769556953595559D5695569535C461
:1057B3007240825187FF5EFEDCEE18EE16FEF8C3E0
:1057C30089FCCEEBA8DAC5FB89DA45DA26E2EBE3FE
:1057D3008FEC53FD57FE1AAA8CAA8CC371E475F59E
:1057E30058FDDBFE3CFE7DFEDEFEBEF63DEDFCED30
:1057F300DBFEBFFE9EEDFCF65DFEDFFEDEFEDEFFA2
:105803003FFF1EF6FEF71EEF1EE6FDEF3EF79FE796
:105813007F10E519464B0D6BF16C319D97B639AD91
:10582300D89D369D56A5769D3695357CB35B8F43C3
:105833000E328C222B2A4B42EE5BD17C738CF59D6E
:1058430077955695568D15955695567CB384F4F6F3
:1058530018A38E82ABFEDCFEFCE5F7FE78FE77C371
:1058630089EC6BFD0ECA63C204DAA8EB0AEB4DFCAC
:1058730093FCF5FD98E412B2CDDC13ECF6F557FD7D
:10588300FAFE5CFE5CF63CF65CF65CEDDBE5BADD4D
:105893009AFE7DFE9EFE7EFEBEFEDEFEDEFF3FFF27
:1058A3001FFF3FFF7FFF7FF73EEEFDE6FDE73EFF75
:1058B300FF29A819672A095BAF7CB3955695369DD6
:1058C30077A597A5979D568CD47C925B8E2A6A11F7
:1058D300E909C911A919EA2A4B42ED5BB174538452
:1058E300B484D48CF584D4851484F46C517472FE1E
:1058F30039F65AC4B4FEDCFEDCCD56FEFBFE36920E
:1059030065B2E6FDB1EBEBEBCCEB8CE34CDB2DD3DB
:10591300D0EC94FDB9C350D3F2F517F558F599FEC1
:105923001BFE3BF63BF63CF63CF63CF5FBEDBBE5DC
:105933009AEE1CF65CFEBEFEFFF6BEEE7DF6BEF6EC
:10594300BDFF1FFF7FFF7FF73FEEFEEEFEEF3FE75A
:105953005F192721A82A094B0D63D07C939556958F
:1059630015ADB8A5988CF47C525BAF328A118701D0
:1059730047018811A919C919EA2A2B42EE5BB074B1
:10598300537C938CF584D47CD374725BAF63F0DD6A
:1059930056FE9BEE3AFF1EFEDDCD77FEFCDD547115
:1059A300A479A3E48EDC0CFCF1DBCEDBCFDBF1E4EA
:1059B30074ED37FD98CBF2FD99FD99F578FE3BFE2A
:1059C3001BF61BF63BF63BEDFBEDDAED9AE559EDE5
:1059D300FBE5DBE5DAEE5CFEFFFF1FF6DEEE7DEEB8
:1059E300BDEEBDF6FEFF3FFF1EEEDDF6FEFF7FD6EA
:1059F3009D088431E9428C532E6BF174537C738C74
:105A0300F5ADB8A5988CD474324B0D19E80967111C
:105A1300A911EA1A0B1A0A19C919CA328C534F6C05
:105A2300127C738D1584D47CB36C52538F5BCFED92
:105A330098E598F65BFEFEFEFEEE3BFEFDBCB2690A
:105A4300853820C3EDB34BCBEFECF4FDF9FE3BFE01
:105A5300BDFE9DCC74C413FDDAFDB9FDDAFE5CFE18
:105A63007CF61BF63BF61BE599E559ED59DD18E588
:105A73009ADD79DD79DDBAEE5CFF1FFF1FE67CEE70
:105A8300BDDE5BE67CFF3FFF3FEE9DEEBDFF5FD6D5
:105A93007C18C63A2A322A29E9534E7C947C738CAB
:105AA300D59D579D578CF574323AAB096709871119
:105AB300E919EA19EA19C9118919A92A4B42ED63AF
:105AC300D174738D157CD47C936C525BAF5BD0ED3A
:105AD30098D4D5F63BFE9DFE7DFE9DFF1EE5B88264
